:00300002CE
:003040028E
:003080024E
:0030C0020E
:00310002CD
:003140028D
:003180024D
:0031C0020D
:00320002CC
:003240028C
:003280024C
:0032C0020C
:00330002CB
:003340028B
:003380024B
:0033C0020B
:00340002CA
:003440028A
:003480024A
:0034C0020A
:00350002C9
:0035400289
:0035800249
:0035C00209
:00360002C8
:0036400288
:0036800248
:0036C00208
:00370002C7
:0037400287
:0037800247
:0037C00207
:00380002C6
:0038400286
:0038800246
:0038C00206
:00390002C5
:0039400285
:0039800245
:0039C00205
:003A0002C4
:003A400284
:003A800244
:003AC00204
:003B0002C3
:083000008134A5340934503479
:08300800441842340034003486
:0830100086180434003400347A
:083018008A181434003400345E
:083020009E1816340034003440
:08302800B4184D3400340034EB
:083030000119C334003400341F
:08303800C419383402340034DD
:08304000FC1B7734013400345D
:08304800731D14340034003440
:08305000FF3FFF3FFF3FFF3F80
:08305800FF3FFF3FFF3FFF3F78
:08306000FF3FFF3FFF3FFF3F70
:08306800FF3FFF3FFF3FFF3F68
:08307000FF3FFF3FFF3FFF3F60
:08307800FF3FFF3FFF3FFF3F58
:08308000FF3FFF3FFF3FFF3F50
:0830880004340134003431343A
:08309000043401340034323431
:083098000434013400347034EB
:0830A0000434003400347134E3
:0830A8000434003400347234DA
:0830B0000434003400347334D1
:0830B8000434003400345134EB
:0830C0000434003400347434C0
:0830C800043400340034133419
:0830D00001340034C034003467
:0830D80001340034C13400345E
:0830E00001340034C334003454
:0830E80001340034C43400344B
:0830F0001334243431340034A0
:0830F80000340D3402340034F1
:083100000034503402340034A5
:083108000134003404340534E5
:0831100000345034043418347B
:083118000034C0340434053416
:083120000034C1340434003412
:083128000034C3340434053403
:083130000034003404340334C0
:08313800003450340434243447
:08314000313401340234013482
:08314800C034013402340134EB
:08315000C134013402340134E2
:08315800C334013403340134D7
:08316000C43403340034503480
:0831680004340034003471341A
:08317000043400340034723411
:08317800043400340034733408
:08318000043400340034303443
:08318800043400340034343437
:08319000043400340034333430
:0831980004340034003420343B
:0831A000043400340034213432
:0831A800043400340034223429
:0831B000043400340034233420
:0831B8000434003400345134EA
:0831C0000334403400340334F1
:0831C8004134003403344234A9
:0831D0000034033445340034DF
:0831D8000E3443344434013489
:0831E000043400340034C33450
:0831E800043405340034003406
:0831F0000D34023400340134F7
:0831F8005034043400340334A8
:083200000034033460340F3484
:08320800033461341034133467
:08321000003400345134003495
:08321800133401340034513479
:083220000134133402340034C0
:08322800513402341334033465
:0832300000345134033404346E
:083238003C34003404340A3474
:083240006434043405340A343F
:0832480065340434063410342F
:08325000053407341034063484
:0832580008340E340034063482
:0832600009340E340134053479
:083268000A3404340034003480
:0832700018340C340234003460
:0832780000340B340B34183450
:083280000434763400341834E4
:083288000C340234003401345F
:083290000B340B341834043434
:08329800EC34003418340C344E
:0832A0000234003402340B3447
:0832A8000B3418340C3402341D
:0832B000003403340B340B342D
:0832B80018340F3409340A3404
:0832C0000C3404340034003426
:0832C80018340C340234003408
:0832D0000C340B340B341834EC
:0832D8000E34003408340D34FB
:0832E0000E34013407340E34F2
:0832E8000434463400341834AC
:0832F0000C34023400340D34EB
:0832F8001134183410340C34B9
:08330000023400340E341134D4
:0833080011340F340C340234BF
:083310000034023411341134C1
:08331800C0340C34023400340F
:08332000033411341134193497
:083328000534113400340434B3
:083330009E34003418340C3403
:08333800023400340C340034AF
:083340000034183404340A348F
:08334800003418340C34023487
:0833500000340C340134013497
:0833580018340C340234003477
:083360000C340234023418346D
:0833680003340B34203403345C
:08337000003421340334013460
:08337800223403340234233433
:0833800004340634003450341B
:08338800033460340034033407
:083390006134013404343C34C3
:08339800003402340A346434ED
:0833A000023403340A346534E1
:0833A80002340434043418342B
:0833B000003402340C34023435
:0833B80000340334003400343A
:0833C00002340C340234003425
:0833C800043401340134023425
:0833D0000334C034023403345D
:0833D800703406340334713433
:0833E000073403347234083491
:0833E80003347334093403348B
:0833F00030341434033431348D
:0833F80015340334323416349D
:083400000334333417340334A4
:083408003434183404340F348D
:0834100000340A340A340034D0
:083418000A340A3404340134C3
:0834200000340B3401340234C6
:083428000B340B340A340134AB
:083430000B340B340E340A3496
:083438000B340B340B3401349A
:0834400002340C3410340A348C
:083448000A340F340C340A347D
:083450000C340E340C34073477
:083458000C340434003400348C
:083460000D340C340234003479
:083468000C34073407340D3465
:08347000103409340D340E3450
:083478000C340D340C340C344B
:08348000023400340C3417344F
:0834880017340D341034133425
:083490000D340E340B340D3431
:083498000D34103407340E342A
:0834A0000E340D340E340D341E
:0834A8000434013400340E3439
:0834B0000C34023400340D3429
:0834B800133413340E34043404
:0834C000DC3405340E340C3439
:0834C800023400340D3480349D
:0834D00080340E340E340B347D
:0834D80013340D3413340034E9
:0834E000003480340E340E3478
:0834E8000D340E340F340434DE
:0834F000013400340C340C34EB
:0834F800023400340F340734E4
:0835000007340C340C340234D2
:0835080000340F3417341734AE
:083510000C34043400340034D3
:083518000C340C3402340034C1
:083520000F34133413340C3492
:083528000434053400340A34B8
:083530000434003400340B34B4
:0835380002340B340A340A349A
:083540000434143400340B3490
:083548000B340A3400340A348C
:08355000093400340B340B3484
:083558000E340A340B340A346E
:083560000434013400340B3483
:08356800023402340B340B3471
:08357000093401340B340B3463
:083578000E340A340B340B344D
:083580000434013400340C3462
:083588000E340B3407340D343E
:083590000C34023400340D3448
:08359800083408340C340C3433
:0835A000023400340D3418342C
:0835A80018340C340434003423
:0835B00000340C340C34023429
:0835B80000340D341334133408
:0835C0000C34103407340C3404
:0835C8000E340B340C340D34F9
:0835D000103413340C340E34E6
:0835D8000D340C340E341034E4
:0835E00008340C340E340E34E3
:0835E8000C340E3404340134EC
:0835F00000340C340C340234E9
:0835F80000340E3413341334C7
:083600000C340434DC34053401
:083608000C340C3402340034D0
:083610000E34803480340C34C8
:083618000E340D3413340D349F
:0836200013340034003480343F
:083628000C340E340D340C3497
:083630000D34043401340034B0
:083638000C340C3402340034A0
:083640000D34073407340C348B
:083648000C34023400340D348F
:08365000083408340C340C347A
:08365800023400340D34183473
:0836600018340C34043400346A
:0836680000340C340C34023470
:0836700000340D34133413344F
:083678000C340A340034023462
:083680000A3404340034003464
:083688000B3404340534003456
:083690000C3402340B340C343D
:083698000B34093400340B343B
:0836A0000B340F340A340B3423
:0836A8000A3404341434003428
:0836B0000B340A3400340B3422
:0836B8000B340F340A340B340B
:0836C0000B340E340B34083406
:0836C8000B340434003400341B
:0836D0000A340C34023400340A
:0836D8000B34073407340A34F7
:0836E0000C34023400340B34F9
:0836E800083408340A340C34E4
:0836F000023400340B341834DD
:0836F80018340A3404341234C2
:0837000000340A340A340034DD
:083708000A340A3404340134D0
:0837100000340B3401340234D3
:083718000B340B340A340134B8
:083720000B340B340E340A34A3
:083728000B340B3404340134AE
:0837300000340C340C340234A7
:0837380000340B34093409349C
:083740000C340C340234003497
:083748000B34173417340C3464
:083750000434013400340A3492
:08375800023402340A340A3481
:083760000B3401340A340B3470
:083768000434123400340A3469
:08377000093400340A340A3464
:083778000F340B340A340B344A
:083780000E340B3409340B3444
:083788000434003400340C3459
:083790000C34023400340B3448
:08379800093409340C3410342B
:0837A00007340A340E340B3427
:0837A8000A340B340C34023426
:0837B00000340B341734173408
:0837B8000C34033406347034B4
:0837C0000334073471340334B3
:0837C8000834723403340934A3
:0837D000733403341434303467
:0837D8000334153431340334CD
:0837E0001634323403341734AF
:0837E800333403341834343487
:0837F0000434073400345034A6
:0837F8000334513400340334A2
:08380000483401340334403464
:0838080002340334413403349F
:083810001034013409340334C3
:0838180000340B3413340334B7
:083820000034513404340C346F
:083828000234003404341934A9
:08383000C034193404340034E3
:083838000034043404340134AF
:083840000034053404340234A5
:0838480000340634043403349B
:08385000003407340E34463445
:08385800473408340C3402343B
:08386000003408340234023484
:0838680004340C340234003476
:0838700008340334033404346E
:08387800133400340034003465
:0838800008340E340834093449
:083888000A340E340A34033443
:083890000C340C340234003446
:083898000C340B340B34063430
:0838A0000E340A3402340C342A
:0838A8000C34023400340C342E
:0838B0000B340B340534123413
:0838B80000340B340C3403341E
:0838C0000B3400340C34023417
:0838C80000340C340234043416
:0838D00002340C340234003410
:0838D8000C3403340434033402
:0838E0001334013400340034FC
:0838E80008340E3408340934E1
:0838F0000A340E340A340334DB
:0838F8000C340C3402340034DE
:083900000C340B340B340434C9
:083908000E340A3402340C34C1
:083910000C34023400340C34C5
:083918000B340B3406341234A9
:0839200000340B340C340334B5
:083928000B3400340C340234AE
:0839300000340C3402340434AD
:0839380002340C3402340034A7
:083940000C3403340434033499
:08394800133402340034003492
:0839500008340E340834013480
:083958000A340C34023400347F
:083960000A340B340B34073468
:083968000E34083409340A345E
:083970000E340A3403340C3458
:083978000C34023400340C345D
:083980000B340B340534103444
:0839880003340C340E340A3440
:083990000C340C340E340C342D
:0839980002340D340C3402343A
:0839A00000340D340B340B342C
:0839A8000434123400340B3426
:0839B0000D3403340B34003424
:0839B8000C34023400340D341C
:0839C0000234043402340C341B
:0839C800023400340D34033415
:0839D000043403341334033402
:0839D8000034003408340E3401
:0839E000083409340A340C34E8
:0839E800023400340A340B34F0
:0839F0000B3406340E340834D8
:0839F80001340A3410340234DA
:083A00000C340E340A340C34BE
:083A08000D340E340D340334BB
:083A10000E34023419340534B0
:083A18000F34043414340034AF
:083A200010340A340F34103495
:083A280011340E340E34113488
:083A300012340C34023400349E
:083A38001234193419340F3463
:083A40001034113411340E346E
:083A48000E34113412340C3469
:083A5000023400341234193471
:083A5800193410340E340A3455
:083A600002340C340134193466
:083A680005340D3404341C3454
:083A700000340E340A340D3459
:083A78000E340F340E340C343F
:083A80000F3410340C34023441
:083A8800003410341934193424
:083A90000E3410340F340F3422
:083A98000E340C340F3410341D
:083AA0000C3402340034103430
:083AA800193419340D341234F5
:083AB00000340B340D34033423
:083AB8000B3400340C3402341D
:083AC00000340D34023404341B
:083AC80002340C340234003416
:083AD0000D3403340434033407
:083AD8000334003451340434BE
:083AE0000834003450341334A3
:083AE80003340034513417349B
:083AF0000C34023400341734D9
:083AF800C0341934C034043459
:083B00000534003400340434E4
:083B0800033400345034FF3F88
:00000001FF
