:00300002CE
:003040028E
:003080024E
:0030C0020E
:083000008134A5340134503481
:0830080044183A34003400348E
:08301000FF3FFF3FFF3FFF3FC0
:08301800FF3FFF3FFF3FFF3FB8
:08302000FF3FFF3FFF3FFF3FB0
:08302800FF3FFF3FFF3FFF3FA8
:08303000FF3FFF3FFF3FFF3FA0
:08303800FF3FFF3FFF3FFF3F98
:08304000FF3FFF3FFF3FFF3F90
:08304800FF3FFF3FFF3FFF3F88
:08305000FF3FFF3FFF3FFF3F80
:08305800FF3FFF3FFF3FFF3F78
:08306000FF3FFF3FFF3FFF3F70
:08306800FF3FFF3FFF3FFF3F68
:08307000FF3FFF3FFF3FFF3F60
:08307800FF3FFF3FFF3FFF3F58
:08308000FF3FFF3FFF3FFF3F50
:0830880004340134003431343A
:08309000043401340034323431
:083098000434013400347034EB
:0830A0000434003400347134E3
:0830A8000434003400347234DA
:0830B0000434003400347334D1
:0830B8000434003400347434C8
:0830C00001340034C034003477
:0830C80001340034C13400346E
:0830D00001340034C334003464
:0830D80001340034C43400345B
:0830E0001334243431340034B0
:0830E80000340D340234003401
:0830F0000034503402340034B6
:0830F80001340034FF3FFF3FEB
:00000001FF
