:00300002CE
:003040028E
:003080024E
:0030C0020E
:00310002CD
:003140028D
:003180024D
:0031C0020D
:00320002CC
:003240028C
:003280024C
:0032C0020C
:00330002CB
:003340028B
:003380024B
:0033C0020B
:00340002CA
:003440028A
:003480024A
:0034C0020A
:00350002C9
:0035400289
:0035800249
:0035C00209
:00360002C8
:0036400288
:0036800248
:0036C00208
:00370002C7
:083000008134A5340934503479
:0830080044183E34003400348A
:0830100082180834003400347A
:083018008A181434003400345E
:083020009E1816340034003440
:08302800B4184D3400340034EB
:083030000119C334003400341F
:08303800C4193E3400340034D9
:08304000021A77340134003458
:08304800791B1434003400343C
:08305000FF3FFF3FFF3FFF3F80
:08305800FF3FFF3FFF3FFF3F78
:08306000FF3FFF3FFF3FFF3F70
:08306800FF3FFF3FFF3FFF3F68
:08307000FF3FFF3FFF3FFF3F60
:08307800FF3FFF3FFF3FFF3F58
:08308000FF3FFF3FFF3FFF3F50
:0830880004340134003431343A
:08309000043401340034323431
:083098000434003400347034EC
:0830A0000434003400347134E3
:0830A8000434003400347234DA
:0830B0000434003400347334D1
:0830B8000434003400345134EB
:0830C0000434003400347434C0
:0830C80001340034C03400346F
:0830D00001340034C134003466
:0830D80001340034C33400345C
:0830E00001340034C434003453
:0830E8001334243431340034A8
:0830F00000340D3402340034F9
:0830F8000034503402340034AE
:083100000134003404341834DA
:083108000034C0340434053426
:0831100000345034043418347B
:083118000034C0340434053416
:083120000034C1340434003412
:083128000034C3340434053403
:083130000034003404340334C0
:08313800003450340434243447
:08314000313401340234013482
:08314800C034013402340134EB
:08315000C134013402340134E2
:08315800C334013403340134D7
:08316000C43403340034503480
:0831680004340034003471341A
:08317000043400340034723411
:08317800043400340034733408
:08318000043400340034303443
:08318800043400340034343437
:08319000043400340034333430
:0831980004340034003420343B
:0831A000043400340034213432
:0831A800043400340034223429
:0831B000043400340034233420
:0831B8000434003400345134EA
:0831C0000334403400340334F1
:0831C8004134003403344234A9
:0831D0000034033445340034DF
:0831D8000E3443344434013489
:0831E000043400340034C33450
:0831E800043405340034003406
:0831F0000D34023400340134F7
:0831F8005034043400340334A8
:083200000034033460340F3484
:08320800033461341034133467
:08321000003400345134003495
:08321800133401340034513479
:083220000134133402340034C0
:08322800513402341334033465
:0832300000345134033404346E
:083238003C34003404340A3474
:083240006434043405340A343F
:0832480065340434063410342F
:08325000053407341034063484
:0832580008340E340034063482
:0832600009340E340134053479
:083268000A3404340034003480
:0832700018340C340234003460
:0832780000340B340B34183450
:083280000434763400341834E4
:083288000C340234003401345F
:083290000B340B341834043434
:08329800EC34003418340C344E
:0832A0000234003402340B3447
:0832A8000B3418340C3402341D
:0832B000003403340B340B342D
:0832B80018340F3409340A3404
:0832C0000C3404340034003426
:0832C80018340C340234003408
:0832D0000C340B340B341834EC
:0832D8000E34003408340D34FB
:0832E0000E34013407340E34F2
:0832E8000434463400341834AC
:0832F0000C34023400340D34EB
:0832F8001134183410340C34B9
:08330000023400340E341134D4
:0833080011340F340C340234BF
:083310000034023411341134C1
:08331800C0340C34023400340F
:08332000033411341134193497
:083328000534113412340434A1
:083330009E34003418340C3403
:08333800023400340C3412349D
:083340001234183404340A347D
:08334800003418340C34023487
:0833500000340C341334133473
:0833580018340C340234003477
:083360000C3414341434183449
:0833680003340B34203403345C
:0833700012342134033413343C
:08337800223403341434233421
:0833800004340734003450341A
:08338800043401340034313437
:0833900004340134003432342E
:083398000434003400347034E9
:0833A0000434003400347134E0
:0833A8000434003400347234D7
:0833B0000434003400347334CE
:0833B8000434003400345134E8
:0833C0000434003400347434BD
:0833C80001340034C03400346C
:0833D00001340034C134003463
:0833D80001340034C334003459
:0833E00001340034C434003450
:0833E8001334243431340034A5
:0833F00000340D3402340034F6
:0833F8000034503402340034AB
:0834000001340034033451349F
:083408000034033448340134A0
:0834100003344034023403349C
:08341800413403341034013487
:083420000934033400340B34BD
:08342800133403340034513465
:0834300004340C3402340034B2
:0834380004341934C0341934C6
:083440000434003400340434AC
:083448000434013400340534A2
:08345000043402340034063498
:0834580004340334003407348E
:083460000E34463447340834F1
:083468000C3402340034083476
:083470000234023404340C3470
:0834780002340034083403346F
:0834800003340434133400345A
:083488000034003408340E3456
:08349000083409340A340E343B
:083498000A3403340C340C3437
:0834A000023400340C340B343B
:0834A8000B3406340E340A3423
:0834B00002340C340C34023428
:0834B80000340C340B340B341A
:0834C0000534123400340B3412
:0834C8000C3403340B34003412
:0834D0000C34023400340C340A
:0834D8000234043402340C3408
:0834E000023400340C34033403
:0834E8000434033413340134F1
:0834F0000034003408340E34EE
:0834F800083409340A340E34D3
:083500000A3403340C340C34CE
:08350800023400340C340B34D2
:083510000B3404340E340A34BC
:0835180002340C340C340234BF
:0835200000340C340B340B34B1
:083528000634123400340B34A8
:083530000C3403340B340034A9
:083538000C34023400340C34A1
:083540000234043402340C349F
:08354800023400340C3403349A
:08355000043403341334023487
:083558000034003408340E3485
:08356000083401340A340C3474
:08356800023400340A340B3474
:083570000B3407340E3408345B
:0835780009340A340E340A3450
:0835800003340C340C34023456
:0835880000340C340B340B3449
:083590000534103403340C343F
:083598000E340A340C340C342B
:0835A0000E340C3402340D342A
:0835A8000C34023400340D3430
:0835B0000B340B340434123417
:0835B80000340B340D34033420
:0835C0000B3400340C3402341A
:0835C80000340D340234043418
:0835D00002340C340234003413
:0835D8000D3403340434033404
:0835E0001334033400340034FD
:0835E80008340E3408340934E4
:0835F0000A340C3402340034EB
:0835F8000A340B340B340634D5
:083600000E34083401340A34D1
:08360800103402340C340E34BE
:083610000A340C340D340E34B1
:083618000D3403340E340234BA
:08362000193405340F340434A1
:083628001434003410340A349C
:083630000F34103411340E3484
:083638000E34113412340C347D
:08364000023400341234193485
:0836480019340F341034113461
:0836500011340E340E34113464
:0836580012340C34023400347A
:0836600012341934193410343E
:083668000E340A3402340C3464
:083670000134193405340D3456
:0836780004341C3400340E344C
:083680000A340D340E340F343E
:083688000E340C340F34103431
:083690000C3402340034103444
:08369800193419340E3410340A
:0836A0000F340F340E340C341A
:0836A8000F3410340C3402341D
:0836B000003410341934193400
:0836B8000D34123400340B3410
:0836C0000D3403340B34003417
:0836C8000C34023400340D340F
:0836D0000234043402340C340E
:0836D800023400340D34033408
:0836E000043403340334003408
:0836E8005134043408340034AD
:0836F00050341334033400349C
:0836F800513417340C34023484
:0837000000341734C034193401
:08370800C03404340534003420
:083710000034043403340034DA
:083718005034FF3FFF3FFF3F6B
:00000001FF
